:020000040000FA
:100000000C945D000C9485000C9485000C94850084
:100010000C9485000C9485000C9485000C9485004C
:100020000C9485000C9485000C9485000C9485003C
:100030000C9485000C9485000C9485000C9485002C
:100040000C9411010C9485000C9485000C9485008F
:100050000C9485000C9485000C9485000C9485000C
:100060000C9485000C94850000000008000201003B
:100070000003040700000000000000000000000072
:10008000250028002B0000000000240027002A0083
:10009000040404040404040402020202020203032E
:1000A0000303030301020408102040800102040836
:1000B00010200102040810208A0211241FBECFEF75
:1000C000D8E0DEBFCDBF11E0A0E0B1E0EEE3F5E0A7
:1000D00002C005900D92A23EB107D9F722E0A2EE30
:1000E000B1E001C01D92AF32B207E1F710E0CDE5FB
:1000F000D0E004C02197FE010E949702CC35D107C1
:10010000C9F70E945B010C949D020C94000090E0E2
:10011000FC01EC55FF4F249180579F4FFC018491C7
:10012000882399F090E0880F991FFC01EA57FF4F50
:10013000A591B491FC01E458FF4F859194918FB73C
:10014000F894EC91E22BEC938FBF089590E0FC01C2
:10015000E859FF4F2491FC01EC55FF4F3491FC010D
:10016000E057FF4FE491EE23C9F0222339F023300A
:1001700001F1A8F4213019F1223029F1F0E0EE0F5D
:10018000FF1FE458FF4FA591B4918FB7F894EC91FD
:10019000611126C030953E233C938FBF08952730D0
:1001A000A9F02830C9F0243049F7809180008F7D74
:1001B00003C0809180008F7780938000DFCF84B56B
:1001C0008F7784BDDBCF84B58F7DFBCF8091B0006E
:1001D0008F778093B000D2CF8091B0008F7DF9CF20
:1001E0003E2BDACF0F931F93CF93DF93082F162F59
:1001F000D42FC8E06D2F661F6627661F802F0E94D0
:10020000A600DD0F61E0812F0E94A60060E0812F33
:100210000E94A600C15071F7DF91CF911F910F91FD
:1002200008951F920F920FB60F9211242F933F93B0
:100230008F939F93AF93BF938091E7019091E801D3
:10024000A091E901B091EA013091E60123E0230F8A
:100250002D3758F50196A11DB11D2093E60180931D
:10026000E7019093E801A093E901B093EA0180913E
:10027000E2019091E301A091E401B091E5010196C2
:10028000A11DB11D8093E2019093E301A093E401CD
:10029000B093E501BF91AF919F918F913F912F91C5
:1002A0000F900FBE0F901F90189526E8230F02960F
:1002B000A11DB11DD2CF789484B5826084BD84B570
:1002C000816084BD85B5826085BD85B5816085BD51
:1002D00080916E00816080936E0010928100809109
:1002E0008100826080938100809181008160809391
:1002F0008100809180008160809380008091B100B6
:1003000084608093B1008091B00081608093B000E0
:1003100080917A00846080937A0080917A00826074
:1003200080937A0080917A00816080937A00809136
:100330007A00806880937A001092C10083E00E9466
:10034000870082E00E94870084E00E94870086E0A8
:100350000E94870085E00E94870087E00E94870056
:100360004091EB015091EC018DEE91E030E020E006
:10037000421753073CF0FC01E20FF31F10822F5F7E
:100380003F4FF6CF089622E08D32920779F7D3E7F8
:100390002D2E312CC8ED8C2EC1E09C2E80EE8816BF
:1003A00081E0980609F4AEC0F401C1914F010C2E12
:1003B000000CDD0BC054D109D7FF02C0D0E0C0E073
:1003C000B3E0CC0FDD1FBA95E1F7C050DF4F10E06E
:1003D00000E080912D0290912E02FC013197F7FDF3
:1003E0003796A3E0F595E795AA95E1F7E351FE4F1F
:1003F00027E030E0DF018C910530110511F48E7F8C
:100400000BC0488150E0022E02C0559547950A94D2
:10041000E2F740FFF4CF81608083215031093896A4
:100420002F3F320741F7E4E0CE2ED12C7DEEA72EF0
:1004300071E0B72EF12CE12C60E086E00E94A6006E
:1004400041E050E00E2C01C0440F0A94EAF765E049
:1004500087E00E94F20060E083E00E94A6006090C6
:10046000EB017090EC01230157FC0CC0F501E40D89
:10047000F51D408162E084E00E94F20091E0491A9B
:100480005108F2CF61E083E00E94A60061E086E0BF
:100490000E94A600C1010197F1F7EFEFEE1AFE0AE4
:1004A000F8E0AF0EB11C28E0E216F10429F681E075
:1004B000C81AD10809F0BACF2DEE31E0F90150E0A9
:1004C00040E0808190E0959587958083461557059B
:1004D0002CF4618160FF02C0806880834F5F5F4FB2
:1004E00031964830510569F7285F3F4F92E02D3231
:1004F000390721F70F5F1F4F21960630110509F0CC
:1005000068CF4CCFE0E0F0E0EF2B09F443CF0E943E
:10051000000040CF87E090E09093EC018093EB01E6
:1005200080E490E090932E0280932D020895EE0FC8
:10053000FF1F0590F491E02D0994F894FFCF00007F
:100540000000000000001F2444241F0000007F4919
:100550004949360000003E414141220000007F41F0
:1005600041221C0000007F494941410000007F48B2
:100570004848400000003E414145260000007F08F9
:1005800008087F00000000417F41000000000201D8
:1005900001017E0000007F081422410000007F015D
:1005A0000101010000007F2010207F0000007F205B
:1005B00010087F0000003E4141413E0000007F489E
:1005C0004848300000003E4145423D0000007F4861
:1005D0004C4A3100000032494949260000004040A1
:1005E0007F40400000007E0101017E0000007C028F
:1005F00001027C0000007E0106017E000000631401
:1006000008146300000060100F10600000004345F4
:100610004951610000004144415349414B200000D1
:107E0000112484B714BE81FFF0D085E080938100F7
:107E100082E08093C00088E18093C10086E0809377
:107E2000C20080E18093C4008EE0C9D0259A86E02C
:107E300020E33CEF91E0309385002093840096BBD3
:107E4000B09BFECF1D9AA8958150A9F7CC24DD24C4
:107E500088248394B5E0AB2EA1E19A2EF3E0BF2EE7
:107E6000A2D0813461F49FD0082FAFD0023811F036
:107E7000013811F484E001C083E08DD089C08234E0
:107E800011F484E103C0853419F485E0A6D080C0E4
:107E9000853579F488D0E82EFF2485D0082F10E0AE
:107EA000102F00270E291F29000F111F8ED06801E7
:107EB0006FC0863521F484E090D080E0DECF843638
:107EC00009F040C070D06FD0082F6DD080E0C81688
:107ED00080E7D80618F4F601B7BEE895C0E0D1E017
:107EE00062D089930C17E1F7F0E0CF16F0E7DF06D8
:107EF00018F0F601B7BEE89568D007B600FCFDCFD4
:107F0000A601A0E0B1E02C9130E011968C91119780
:107F100090E0982F8827822B932B1296FA010C0160
:107F200087BEE89511244E5F5F4FF1E0A038BF0790
:107F300051F7F601A7BEE89507B600FCFDCF97BE46
:107F4000E89526C08437B1F42ED02DD0F82E2BD052
:107F50003CD0F601EF2C8F010F5F1F4F84911BD097
:107F6000EA94F801C1F70894C11CD11CFA94CF0C13
:107F7000D11C0EC0853739F428D08EE10CD085E9AC
:107F80000AD08FE07ACF813511F488E018D01DD067
:107F900080E101D065CF982F8091C00085FFFCCF94
:107FA0009093C60008958091C00087FFFCCF809118
:107FB000C00084FD01C0A8958091C6000895E0E648
:107FC000F0E098E1908380830895EDDF803219F02E
:107FD00088E0F5DFFFCF84E1DECF1F93182FE3DFCA
:107FE0001150E9F7F2DF1F91089580E0E8DFEE27F6
:047FF000FF270994CA
:027FFE00040479
:00000001FF
